S01500004750494F5F494F546F67676C652E7372656387
S11300000C942A000C9434000C9434000C943400A6
S11300100C9434000C9434000C9434000C9434008C
S11300200C9434000C9434000C9434000C9434007C
S11300300C9434000C9434000C9434000C9434006C
S11300400C9434000C9434000C9434000C9434005C
S11300500C94340011241FBECFE5D4E0DEBFCDBF25
S11300600E9436000C945A000C9400008FEF8ABB57
S113007087BB84BB81BB8BBB88BB85BB82BB1BBAE4
S113008018BA15BA12BA2FEF39E698E12150304068
S11300909040E1F700C000008BBB88BB85BB82BBEE
S11300A02FEF39E698E1215030409040E1F700C04D
S10B00B00000E5CFF894FFCF36
S9030000FC
