S02000004932435F54776F426F617264735F436F6D506F6C6C696E672E73726563FF
S11300000C942A000C9434000C9434000C943400A6
S11300100C9434000C9434000C9434000C9434008C
S11300200C9434000C9434000C9434000C9434007C
S11300300C9434000C9434000C9434000C9434006C
S11300400C9434000C9434000C9434000C9434005C
S11300500C94340011241FBECFE5D4E0DEBFCDBF25
S11300600E944F000C9465000C94000011B880E2CB
S113007080B984E086BF089584EA86BF06B607FE89
S1130080FDCF089584E986BF06B604FCFDCF08952C
S113009083B984E886BF06B607FEFDCF08950E94A3
S11300A036000E943C0080E40E94480085E50E94DE
S11300B048000E9442002FEF80E792E021508040E8
S11100C09040E1F700C00000ECCFF894FFCFB1
S9030000FC
