S016000054494D5F5365676D656E74496E742E73726563C7
S11300000C942A000C9447000C9447000C9447006D
S11300100C949C000C9447000C9447000C944700EB
S11300200C9447000C9447000C9447000C94470030
S11300300C9447000C9447000C9447000C94470020
S11300400C9447000C9447000C9447000C94470010
S11300500C94470011241FBECFE5D4E0DEBFCDBF12
S113006010E0A0E6B0E0E8E5F2E002C005900D92F1
S1130070AA36B107D9F720E0AAE6B0E001C01D9284
S1130080AD36B207E1F70E94D2000C942A010C9419
S113009000000F931F93CF93DF93CDB7DEB72E9756
S11300A00FB6F894DEBF0FBECDBF462F2AE0E0E6C0
S11300B0F0E0DE01119601900D922A95E1F71B867E
S11300C01C861D861E86FE013B968E01015F1F4F16
S11300D02AE030E0B9010E9402018193862F972F14
S11300E0E017F107B9F788B3807F88BB413041F04E
S11300F028F0423039F0433039F008C0C39A08C0C0
S1130100C29A06C0C19A04C0C09A02C0443048F4DE
S1130110FE01E40FF11D8385FE01E80FF11D8181CD
S11301208BBB2E960FB6F894DEBF0FBECDBFDF910A
S1130130CF911F910F9108951F920F920FB60F92B6
S113014011242F933F934F935F936F937F938F93D8
S11301509F93AF93BF93CF93EF93FF9360916A0004
S1130160C1E0C60FC0936A0080916B0090916C004F
S11301700E944900C43010F010926A0085E084BDEA
S1130180FF91EF91CF91BF91AF919F918F917F910B
S11301906F915F914F913F912F910F900FBE0F90F0
S11301A01F9018958FEF8ABB8BBB8FE087BB8FE1C5
S11301B088BB83E085BD85E084BD80E489BF7894F5
S11301C0B499FECF2FE788E391E02150804090401E
S11301D0E1F700C00000B49BFECF80916B009091CA
S11301E06C00019690936C0080936B0080916B007F
S11301F090916C00803197421CF310926C00109225
S11302006B00DECF97FB072E16F4009407D077FD22
S113021009D00E94160107FC05D03EF49095819503
S11302209F4F0895709561957F4F0895AA1BBB1B3E
S113023051E107C0AA1FBB1FA617B70710F0A61BE2
S1130240B70B881F991F5A95A9F780959095BC0103
S10B0250CD010895F894FFCFDD
S10D0258C0F9A4B0999282F88090D6
S9030000FC
