:100000000C942A000C943F000C943F000C943F0089
:100010000C943F000C943F000C943F000C943F0064
:100020000C943F000C943F000C943F000C943F0054
:100030000C943F000C943F000C943F000C943F0044
:100040000C943F000C943F000C943F000C943F0034
:100050000C943F0011241FBECFE5D4E0DEBFCDBF1E
:1000600010E0A0E6B0E0E6E7FBE002C005900D92EC
:10007000AA37B107D9F70E9408020C94B9050C946D
:100080000000C09888B38E6088BB8FEC97E0019722
:10009000F1F700C00000B49910C0EFE3FCE931971C
:1000A000F1F700C00000B49BFECF8FE39CE90197FD
:1000B000F1F700C0000081E001C080E8B5990FC0F1
:1000C000EFE3FCE93197F1F700C00000B59BFECFEC
:1000D0008FE39CE90197F1F700C0000082E0B69938
:1000E0000FC0EFE3FCE93197F1F700C00000B69BC9
:1000F000FECF8FE39CE90197F1F700C0000083E099
:10010000B7990FC0EFE3FCE93197F1F700C00000A9
:10011000B79BFECF8FE39CE90197F1F700C0000089
:100120008AE0C09AC19898B39C6098BBEFECF7E066
:100130003197F1F700C00000B4990FC08FE39CE93C
:100140000197F1F700C00000B49BFECFEFE3FCE99C
:100150003197F1F700C0000084E0B5990FC08FE33C
:100160009CE90197F1F700C00000B59BFECFEFE3DB
:10017000FCE93197F1F700C0000085E0B6990FC0A7
:100180008FE39CE90197F1F700C00000B69BFECF1A
:10019000EFE3FCE93197F1F700C0000086E0B79982
:1001A0000FC08FE39CE90197F1F700C00000B79BF7
:1001B000FECFEFE3FCE93197F1F700C000008BE0E0
:1001C00098B3936098BBC298C39AEFECF7E031976D
:1001D000F1F700C00000B4990FC08FE39CE90197CC
:1001E000F1F700C00000B49BFECFEFE3FCE93197CC
:1001F000F1F700C0000087E0B5990FC08FE39CE9DC
:100200000197F1F700C00000B59BFECFEFE3FCE9DA
:100210003197F1F700C0000088E0B6990FC08FE376
:100220009CE90197F1F700C00000B69BFECFEFE319
:10023000FCE93197F1F700C0000089E0B7990FC0E1
:100240008FE39CE90197F1F700C00000B79BFECF58
:10025000EFE3FCE93197F1F700C000008CE098B3C0
:10026000976098BBC398EFECF7E03197F1F700C0C7
:100270000000B4990FC08FE39CE90197F1F700C02B
:100280000000B49BFECFEFE3FCE93197F1F700C02B
:1002900000008EE0B5990FC08FE39CE90197F1F75C
:1002A00000C00000B59BFECFEFE3FCE93197F1F70A
:1002B00000C0000080E0B6990FC08FE39CE9019771
:1002C000F1F700C00000B69BFECFEFE3FCE93197E9
:1002D000F1F700C000008FE0B7990FC08FE39CE9F1
:1002E0000197F1F700C00000B79BFECFEFE3FCE9F8
:1002F0003197F1F700C000008DE00895929893982F
:1003000092B39F70282F207F922B92BB939A32E05A
:100310003A95F1F700C0939822B32F7030E1839F94
:10032000C0011124822B82BB939A82E08A95F1F757
:1003300000C093988FE99FE00197F1F700C000009B
:1003400008958FE295E70197F1F700C0000083E37D
:100350000E947E018FE097E20197F1F700C0000054
:1003600082E30E947E018FEC97E00197F1F700C0D5
:10037000000088E20E947E018CE00E947E0186E0FF
:100380000E947E0181E00E947E018FE99FE001973B
:10039000F1F700C000000895929A939892B39F706D
:1003A000282F207F922B92BB939A32E03A95F1F757
:1003B00000C0939822B32F7030E1839FC0011124B5
:1003C000822B82BB939A82E08A95F1F700C09398C2
:1003D00087EC90E00197F1F700C000000895CF93FB
:1003E000DF93EC018881882331F021960E94CC01B3
:1003F00089918111FBCFDF91CF91089581E00E9417
:100400007E018FE99FE00197F1F700C00000089599
:10041000CF93DF93CDB7DEB761970FB6F894DEBF09
:100420000FBECDBFFE01319681E1DF011D928A959D
:10043000E9F781B38C6F81BB8FE087BB8FEF88BBFF
:100440000E94A1010E94FE010F2EF0E6CF2EF0E0E7
:10045000DF2EF02DCE0101967C010E944100182F65
:100460008A30F0F480E80E947E011F921F93DF9291
:10047000CF92FF92EF920E94CF02C7010E94EF013C
:100480009FEFA4E3BCE09150A040B040E1F700C072
:1004900000000F900F900F900F900F900F90DDCFF6
:1004A0008A3099F40E94FE0180EC0E947E018AE667
:1004B00090E00E94EF012FEF84E39CE02150804008
:1004C0009040E1F700C00000C8CF8B3099F40E9443
:1004D000FE0180EC0E947E018DE690E00E94EF011B
:1004E000AFEFB4E32CE0A150B0402040E1F700C0F2
:1004F0000000B3CF8C3099F40E94FE0180EC0E9482
:100500007E0180E790E00E94EF018FEF94E3ACE082
:1005100081509040A040E1F700C000009ECF8D3098
:1005200099F40E94FE0180EC0E947E0183E790E036
:100530000E94EF01BFEF24E38CE0B15020408040E7
:10054000E1F700C0000089CF8E3099F40E94FE01CF
:1005500080EC0E947E0186E790E00E94EF019FEF11
:10056000A4E3BCE09150A040B040E1F700C000001F
:1005700074CF8F3009F071CF0E94FE0180EC0E9491
:100580007E0188E790E00E94EF012FEF84E39CE07A
:10059000215080409040E1F700C000005ECFAEE007
:1005A000B0E0E5EDF2E00C9490050D891E8986E03F
:1005B0008C831A8309838FEF9FE79E838D83AE011F
:1005C000475E5F4F6F89788DCE0101960E94F102E0
:1005D000EF81F885E00FF11F10822E96E4E00C9475
:1005E000AC05ABE0B0E0E7EFF2E00C9482056C0103
:1005F0007B018A01FC0117821682838181FFCCC1B5
:10060000CE0101963C01F6019381F70193FD85919E
:1006100093FF81917F01882309F4BAC1853239F4AF
:1006200093FD859193FF81917F01853229F4B60175
:1006300090E00E94E804E7CF912C212C312CFFE1BF
:10064000F315D8F08B3279F038F4803279F08332B8
:10065000A1F4232D20611DC08D3261F0803369F437
:10066000232D216016C0832D8260382EE32DE46097
:100670003E2E2AC0F32DF8601DC037FC2DC020EDA2
:10068000280F2A3040F08E32B9F436FC81C1232D78
:100690002064322E19C036FE06C08AE0989E200DD6
:1006A0001124922E11C0EAE02E9E200D1124222E3C
:1006B000F32DF0623F2E08C08C3621F4832D806824
:1006C000382E02C0883641F4F70193FD859193FFDF
:1006D00081917F018111B3CF982F9F7D95549330E5
:1006E00028F40C5F1F4F9FE399830DC0833631F0D0
:1006F000833771F0833509F059C021C0F80180813A
:1007000089830E5F1F4F88248394912C530113C05B
:100710002801F2E04F0E511CF801A080B18036FE96
:1007200003C0692D70E002C06FEF7FEFC5010E942A
:10073000DD044C018201F32DFF773F2E16C0280106
:1007400022E0420E511CF801A080B18036FE03C0A9
:10075000692D70E002C06FEF7FEFC5010E94D204E7
:100760004C01F32DF0683F2E820133FC1BC0822D1B
:1007700090E088169906B0F4B60180E290E00E94FD
:10078000E8042A94F4CFF50137FC859137FE819176
:100790005F01B60190E00E94E80421102A9421E054
:1007A000821A91088114910471F7E8C0843611F01F
:1007B000893641F5F80137FE07C060817181828179
:1007C00093810C5F1F4F08C060817181072E000C60
:1007D000880B990B0E5F1F4FF32DFF763F2E97FF6F
:1007E00009C090958095709561957F4F8F4F9F4F71
:1007F000F0683F2E2AE030E0A3010E942405882EF5
:10080000861845C0853731F4232D2F7EB22E2AE07D
:1008100030E025C0932D997FB92E8F36C1F018F4A2
:10082000883579F0B5C0803719F0883721F0B0C02D
:10083000E92FE061BE2EB4FE0DC0FB2DF460BF2E8B
:1008400009C034FE0AC0292F2660B22E06C028E057
:1008500030E005C020E130E002C020E132E0F801E4
:10086000B7FE07C060817181828193810C5F1F4F49
:1008700006C06081718180E090E00E5F1F4FA30190
:100880000E942405882E8618FB2DFF773F2E36FE0A
:100890000DC0232D2E7FA22E891458F434FE0BC0D8
:1008A00032FC09C0832D8E7EA82E05C0B82CA32C47
:1008B00003C0B82C01C0B92CA4FE0FC0FE01E80D86
:1008C000F11D8081803321F49A2D997EA92E09C0D3
:1008D000A2FE06C0B394B39404C08A2D867809F0B2
:1008E000B394A3FC11C0A0FE06C0B21488F4280C77
:1008F000922C9B180EC0B21460F4B60180E290E016
:100900000E94E804B394F7CFB21418F42B1802C075
:10091000982C212CA4FE10C0B60180E390E00E9428
:10092000E804A2FE17C0A1FC03C088E790E002C063
:1009300088E590E0B6010CC08A2D867859F0A1FEBA
:1009400002C08BE201C080E2A7FC8DE2B60190E01C
:100950000E94E804891438F4B60180E390E00E9414
:10096000E8049A94F7CF8A94F301E80DF11D808191
:10097000B60190E00E94E8048110F5CF222009F42E
:1009800042CEB60180E290E00E94E8042A94F6CFBD
:10099000F6018681978102C08FEF9FEF2B96E2E1EF
:1009A0000C949E05FC010590615070400110D8F731
:1009B000809590958E0F9F1F0895FC0161507040A7
:1009C00001900110D8F7809590958E0F9F1F089584
:1009D0000F931F93CF93DF93FB01238121FD03C06E
:1009E0008FEF9FEF2CC022FF16C0468157812481D4
:1009F00035814217530744F4A081B1819D012F5FD7
:100A00003F4F318320838C93268137812F5F3F4F67
:100A10003783268314C08B01EC01FB010084F18530
:100A2000E02D0995892BE1F6D80116968D919C91C0
:100A30001797019617969C938E931697CE01DF9188
:100A4000CF911F910F910895FA01AA27283051F1F3
:100A5000203181F1E8946F936E7F6E5F7F4F8F4FEF
:100A60009F4FAF4FB1E03ED0B4E03CD0670F781F4E
:100A7000891F9A1FA11D680F791F8A1F911DA11D33
:100A80006A0F711D811D911DA11D20D009F468946C
:100A90003F912AE0269F11243019305D3193DEF614
:100AA000CF010895462F4770405D4193B3E00FD0CA
:100AB000C9F7F6CF462F4F70405D4A3318F0495DB5
:100AC00031FD4052419302D0A9F7EACFB4E0A69598
:100AD0009795879577956795BA95C9F700976105BA
:100AE000710508959B01AC010A2E06945795479510
:100AF00037952795BA95C9F7620F731F841F951F05
:100B0000A01D08952F923F924F925F926F927F9215
:100B10008F929F92AF92BF92CF92DF92EF92FF920D
:100B20000F931F93CF93DF93CDB7DEB7CA1BDB0BB9
:100B30000FB6F894DEBF0FBECDBF09942A8839885E
:100B400048885F846E847D848C849B84AA84B98465
:100B5000C884DF80EE80FD800C811B81AA81B98171
:100B6000CE0FD11D0FB6F894DEBF0FBECDBFED0185
:060B70000895F894FFCF88
:100B76006E756D6265723D256400663100663200F1
:0A0B86006633006634002A002300E5
:00000001FF
