:100000000C942A000C943C000C943C000C943C0092
:100010000C943C000C943C000C943C000C943C0070
:100020000C943C000C9446000C943C000C943C0056
:100030000C943C000C943C000C943C000C943C0050
:100040000C943C000C943C000C943C000C943C0040
:100050000C943C0011241FBECFE5D4E0DEBFCDBF21
:1000600020E0A0E6B0E001C01D92A136B207E1F7A2
:100070000E9463000C9468000C94000085E083BF2C
:1000800012BE89B7816089BF789408951F920F923C
:100090000FB60F9211248F939F93809160008F5F12
:1000A00080936000809160008F3030F098B381E0E1
:1000B000892788BB109260009F918F910F900FBE8F
:1000C0000F901F901895B89AC0980E943E00FFCFDD
:0400D000F894FFCFD2
:00000001FF
