:100000000C946B000C9480000C9480000C94800085
:100010000C9480000C9480000C9480000C94800060
:100020000C9480000C9480000C9480000C94800050
:100030000C9480000C9480000C9480000C94800040
:100040000C9480000C9480000C9480000C94800030
:100050000C94800007634236B79BD8A71A396856BC
:1000600018AEBAAB558C1D3CB7CC5763BD6DEDFDDA
:10007000753EF6177231BF000000803F0800000097
:10008000BE922449123EABAAAA2ABECDCCCC4C3E8D
:1000900000000080BEABAAAAAA3E00000000BF007C
:1000A0000000803F0000000000084178D3BB438778
:1000B000D1133D190E3CC3BD4282AD2B3E68EC828C
:1000C00076BED98FE1A93E4C80EFFFBE01C4FF7F11
:1000D0003F000000000011241FBECFE5D4E0DEBFCA
:1000E000CDBF10E0A0E6B0E0E4E9FDE002C005907D
:1000F0000D92A037B107D9F70E94A3020C94C8064D
:100100000C940000C09892B39F70282F207F922BF0
:1001100092BBC19A32E03A95F1F700C0C198EFE87E
:10012000F1E03197F1F700C0000022B32F70F0E149
:100130008F9FC0011124822B82BBC19A32E03A9575
:10014000F1F700C0C1988FE891E00197F1F700C086
:1001500000000895C09A92B39F70282F207F922BA1
:1001600092BBC19A32E03A95F1F700C0C198EFE82E
:10017000F1E03197F1F700C0000022B32F70F0E1F9
:100180008F9FC0011124822B82BBC19A32E03A9525
:10019000F1F700C0C1988FE891E00197F1F700C036
:1001A0000000089581B3806F81BB87B3836087BBF4
:1001B0002FE788E391E0215080409040E1F700C0B4
:1001C000000083E30E94820082E30E94820088E2B2
:1001D0000E9482008CE00E94820081E00E948200E6
:1001E00086E00E9482008FE99FE00197F1F700C04E
:1001F00000000895CF93DF93EC018881882331F0CC
:1002000021960E94AA0089918111FBCFDF91CF91A5
:10021000089581E00E9482008FE99FE00197F1F745
:1002200000C000000895EF92FF920F931F93CF93A9
:10023000DF93FC01EB01892B51F0E42EF12C21E03E
:10024000E21AF1081E141F042CF050E03FC080E3B6
:1002500088835FC080E051E0580F8E01080F111DA8
:100260009F01ADECBCEC0E94A506969587959695EE
:100270008795969587959C01220F331F880F991FAC
:10028000880F991F880F991F820F931FDF01A81BEA
:10029000B90BCD01805DD8018C939F01ADECBCEC16
:1002A0000E94A506FC01F695E795F695E795F6956B
:1002B000E795309721F4543048F0852F11C0852FF1
:1002C000252F30E02E153F0534F2F5CF90E281E086
:1002D000850FFE01E50FF11D9083582F8430B8F390
:1002E000282F30E0FE01E20FF31F1082869589F07F
:1002F0009F01FE01815090E001968C0F9D1F40816F
:1003000021503109D9015C9151934C93E817F907B9
:10031000B1F7CE010E94FA00DF91CF911F910F91AA
:10032000FF90EF9008954F925F926F927F928F921D
:100330009F92AF92BF92CF92DF92EF92FF920F9374
:100340001F93CF93DF93CDB7DEB72E970FB6F894F8
:10035000DEBF0FBECDBF2B013C017A010E94DB0343
:100360004B015C01602F70E080E090E00E9411047E
:100370009B01AC0160E070E080E291E40E940C051A
:100380006B877C878D879E8799204CF48DE2F701DF
:100390008083882799278819990941E002C0C40100
:1003A00040E0009719F05CF4D42E32C0DD24D394E1
:1003B000D40EF701E40FF11D80E3808329C0FE0114
:1003C000319610E02AE030E01F5FB9010E949106EB
:1003D000805D8193862F972F1816190624F011112E
:1003E00004C0D42E15C0153079F7812F942F815079
:1003F000F701E90FF11DA1E0B0E0AC0FBD1FA80FA0
:10040000B11D2C9120839F5F8111F1CFD42ED10E8D
:10041000002309F468C0B401990C880B990B0E9461
:1004200013049B01AC01C301B2010E94FC022B85A5
:100430003C854D855E850E949F040E94E203AB01CE
:1004400011E01D0DF701ED0DF11D8EE280834115C8
:10045000510509F447C0FE013196D12CD3949A017D
:10046000ADECBCEC0E94A506969587959695879570
:10047000969587959C01220F331F880F991F880F2F
:10048000991F880F991F820F931F9A01281B390B00
:10049000C901805D81939A010E94A506AC01569521
:1004A000479556954795569547954115510521F421
:1004B000D11005C0D12E17C00D11D0CFD02E8D2D4B
:1004C000912F8150F701E90FF11DA1E0B0E0AC0FD1
:1004D000BD1FA80FB11D2C9120839F5F8111F1CF0B
:1004E000D10E01C0D12EF701ED0DF11D1082C70113
:1004F0000E94FA002E960FB6F894DEBF0FBECDBF55
:10050000DF91CF911F910F91FF90EF90DF90CF90EF
:10051000BF90AF909F908F907F906F905F904F9023
:100520000895806487B98AE18A95F1F700C0369A08
:10053000349BFECF349A84B195B1089580E487B995
:1005400087E886B90895CF93DF93CDB7DEB761977B
:100550000FB6F894DEBF0FBECDBF0E949E020E9470
:10056000D20080E00E9491028C0181E00E94910201
:100570007C010E94090180E80E94820080E690E0F0
:100580000E94FA00B80180E090E00E94110420E08F
:1005900030E040EA50E40E949F0420E030EC4FE756
:1005A00054E40E94690320E030E048EC52E40E94E9
:1005B0009F0401E021E1AE014F5F5F4F0E94930174
:1005C00087E690E00E94FA0080EC0E94820089E6B3
:1005D00090E00E94FA0041E1BE016F5F7F4FC701CA
:1005E0000E9413012FEF84E39CE021508040904053
:1005F000E1F700C00000B5CF5058BB27AA270E94E2
:1006000014030C9465040E94570438F00E945E04A1
:1006100020F039F49F3F19F426F40C9454040EF49E
:10062000E095E7FB0C944E04E92F0E94760458F302
:10063000BA17620773078407950720F079F4A6F5C7
:100640000C9498040EF4E0950B2EBA2FA02D0B01FC
:10065000B90190010C01CA01A0011124FF27591B07
:1006600099F0593F50F4503E68F11A16F040A22F0D
:10067000232F342F4427585FF3CF4695379527957E
:10068000A795F0405395C9F77EF41F16BA0B620B7D
:10069000730B840BBAF09150A1F0FF0FBB1F661FC4
:1006A000771F881FC2F70EC0BA0F621F731F841F07
:1006B00048F4879577956795B795F7959E3F08F02D
:1006C000B0CF9395880F08F09927EE0F97958795EF
:1006D00008950E947D030C9465040E945E0458F006
:1006E0000E94570440F029F45F3F29F00C944E0417
:1006F00051110C9499040C9454040E94760468F3EC
:100700009923B1F3552391F3951B550BBB27AA27CA
:1007100062177307840738F09F5F5F4F220F331F04
:10072000441FAA1FA9F335D00E2E3AF0E0E832D0CC
:1007300091505040E695001CCAF72BD0FE2F29D0CF
:10074000660F771F881FBB1F261737074807AB07A1
:10075000B0E809F0BB0B802DBF01FF2793585F4F16
:100760003AF09E3F510578F00C944E040C94990495
:100770005F3FE4F3983ED4F3869577956795B795F8
:10078000F7959F5FC9F7880F911D9695879597F903
:100790000895E1E0660F771F881FBB1F621773077C
:1007A0008407BA0720F0621B730B840BBA0BEE1F91
:1007B00088F7E09508950E94E2036894B1110C94C3
:1007C000990408950E947E0488F09F5798F0B92FED
:1007D0009927B751B0F0E1F0660F771F881F991F76
:1007E0001AF0BA95C9F714C0B13091F00E9498047C
:1007F000B1E008950C949804672F782F8827B85F8C
:1008000039F0B93FCCF3869577956795B395D9F7CD
:100810003EF490958095709561957F4F8F4F9F4FD7
:100820000895E89409C097FB3EF4909580957095E3
:1008300061957F4F8F4F9F4F9923A9F0F92F96E92C
:10084000BB279395F695879577956795B795F111A1
:10085000F8CFFAF4BB0F11F460FF1BC06F5F7F4F3E
:100860008F4F9F4F16C0882311F096E911C0772350
:1008700021F09EE8872F762F05C0662371F096E859
:10088000862F70E060E02AF09A95660F771F881F28
:10089000DAF7880F9695879597F9089597F99F67E6
:1008A00080E870E060E008959FEF80EC08950024F8
:1008B0000A941616170618060906089500240A94C5
:1008C00012161306140605060895092E0394000C4B
:1008D00011F4882352F0BB0F40F4BF2B11F460FFDA
:1008E00004C06F5F7F4F8F4F9F4F089557FD905803
:1008F000440F551F59F05F3F71F04795880F97FBE4
:10090000991F61F09F3F79F087950895121613069D
:100910001406551FF2CF4695F1DF08C016161706CC
:100920001806991FF1CF8695710561050894089501
:10093000E894BB2766277727CB0197F908950E9493
:10094000B2040C9465040E94570438F00E945E04BF
:1009500020F0952311F00C944E040C9454041124AF
:100960000C9499040E94760470F3959FC1F3950F3F
:1009700050E0551F629FF001729FBB27F00DB11D23
:10098000639FAA27F00DB11DAA1F649F6627B00DB3
:10099000A11D661F829F2227B00DA11D621F739F9C
:1009A000B00DA11D621F839FA00D611D221F749FAA
:1009B0003327A00D611D231F849F600D211D822FF1
:1009C000762F6A2F11249F5750409AF0F1F0882318
:1009D0004AF0EE0FFF1FBB1F661F771F881F915045
:1009E0005040A9F79E3F510580F00C944E040C94A2
:1009F00099045F3FE4F3983ED4F386957795679525
:100A0000B795F795E7959F5FC1F7FE2B880F911D6E
:100A10009695879597F90895FA01EE0FFF1F309686
:100A200021053105A1F16115710561F48038BFE33D
:100A30009B0749F168949038810561F08038BFEFD9
:100A40009B0741F099234AF5FF3FE1053105210558
:100A500019F1E8940894E795D901AA2329F4AB2F5A
:100A6000BE2FF85FD0F310C0FF5F70F4A695E0F7DB
:100A7000F73950F019F0FF3A38F49F779F930DD073
:100A80000F9007FC9058089546F00C94540460E0D1
:100A900070E080E89FE308954FE79F775F934F935F
:100AA0003F932F930E9407062F913F914F915F91A3
:100AB0000E949F040C94640529F416F00C944E04D3
:100AC0000C9498040C9454040E947E04A8F3963865
:100AD000A0F707F80F92E8942BE33AEA48EB5FE7B8
:100AE0000E94B5040F920F920F924DB75EB70F920E
:100AF0000E944F06E4E5F0E00E9496054F915F9159
:100B0000EF91FF91E595EE1FFF1F49F0FE57E0685A
:100B10004427EE0F441FFA95E1F74195550B0E94CB
:100B2000C9050F9007FE0C94BD050895DF93CF9380
:100B30001F930F93FF92EF92DF927B018C016894D9
:100B400006C0DA2EEF010E94B204FE01E894A591DE
:100B50002591359145915591A6F3EF010E9414031B
:100B6000FE019701A801DA9469F7DF90EF90FF90FA
:100B70000F911F91CF91DF9108959B01AC0160E02F
:100B800070E080E89FE30C9469030C944E040C948D
:100B900083060E947E04D8F39923C9F3940F511D54
:100BA000A3F39150504094F059F0882332F0660F2F
:100BB000771F881F91505040C1F79E3F51052CF779
:100BC000880F911D9695879597F908955F3FACF032
:100BD000983E9CF0BB27869577956795B79508F466
:100BE000B1609395C1F7BB0F58F711F460FFE8CFE0
:100BF0006F5F7F4F8F4F9F4FE3CF0C94990416F098
:100C00000C9483060C94540468940C944E040E9433
:100C10007E04A8F39923C1F3AEF3DF93CF931F9320
:100C20000F93FF92C92FDD2788232AF02197660FA3
:100C3000771F881FDAF720E030E040E85FEB9FE3A2
:100C4000883920F0803E38F021968F770E94FD028F
:100C5000ECE7F0E004C00E94FD02E9EAF0E00E9447
:100C600096058B01BE01EC01FB2E6F57710975953E
:100C7000771F880B990B0E94130428E132E741E3A8
:100C80005FE30E94B204AF2D9801AE01FF900F9177
:100C90001F91CF91DF910E9414030C946504FA0117
:100CA000DC01AA0FBB1F9B01AC01BF5728F4222710
:100CB00033274427507820C0B75190F4AB2F00243D
:100CC000469537952795011CA395D2F3002071F026
:100CD000220F331F441FB395DAF30ED00C94FC029D
:100CE00061307105A0E88A07B94630F49B01AC0178
:100CF0006627772788279078309621F020833183E4
:100D00004283538308959F3F31F0915020F487959B
:100D100077956795B795880F911D9695879597F963
:100D2000089597FB072E16F4009407D077FD09D09D
:100D30000E94B40607FC05D03EF4909581959F4F24
:100D40000895709561957F4F0895A29FB001B39F5C
:100D5000C001A39F700D811D1124911DB29F700DC4
:100D6000811D1124911D0895AA1BBB1B51E107C0D1
:100D7000AA1FBB1FA617B70710F0A61BB70B881F2B
:100D8000991F5A95A9F780959095BC01CD010895BA
:040D9000F894FFCF05
:100D940054656D703A20004300414443313A2000C9
:00000001FF
