:100000000C942A000C9447000C9447000C94470071
:100010000C94DE000C9447000C9447000C944700AD
:100020000C9447000C9499000C9447000C944700E2
:100030000C9447000C9447000C9447000C94470024
:100040000C9447000C9447000C9447000C94470014
:100050000C94470011241FBECFE5D4E0DEBFCDBF16
:1000600010E0A0E6B0E0EEEFF2E002C005900D92E5
:10007000AA36B107D9F720E0AAE6B0E001C01D9288
:10008000A537B207E1F70E9423010C947D010C947F
:1000900000000F931F93CF93DF93CDB7DEB72E975A
:1000A0000FB6F894DEBF0FBECDBF462F2AE0E0E6C4
:1000B000F0E0DE01119601900D922A95E1F71B8682
:1000C0001C861D861E86FE013B968E01015F1F4F1A
:1000D0002AE030E0B9010E9455018193862F972FC5
:1000E000E017F107B9F788B3282F207F81E090E06F
:1000F000042E02C0880F991F0A94E2F7822B88BB56
:10010000443060F483E0841BFE01E80FF11D838519
:10011000FE01E80FF11D81819BB38BBB2E960FB6BC
:10012000F894DEBF0FBECDBFDF91CF911F910F912D
:1001300008951F920F920FB60F9211242F933F93A1
:100140004F935F936F937F938F939F93AF93BF93DF
:10015000CF93EF93FF93809171009091720001967D
:100160008230910529F0909372008093710014C041
:10017000109272001092710060916A00C1E0C60F87
:10018000C0936A0080917300909174000E944900AE
:10019000C43010F010926A00FF91EF91CF91BF919F
:1001A000AF919F918F917F916F915F914F913F910F
:1001B0002F910F900FBE0F901F9018951F920F92C6
:1001C0000FB60F9211248F939F9380916B009091A3
:1001D0006C0001968C33910529F090936C0080930C
:1001E0006B000DC010926C0010926B0080916D003E
:1001F00090916E00019690936E0080936D008091B7
:100200006D0090916E00CC9769F410926E00109280
:100210006D0080916F009091700001969093700036
:1002200080936F0080916F0090917000489721F447
:100230001092700010926F009F918F910F900FBEDF
:100240000F901F9018958FEF8ABB8BBB8FE087BBF9
:100250008EE088BB83E083BF12BE81E089BF88E067
:1002600082BD85E085BD14BC89B7806489BF789460
:1002700044E6C199DF98C39903C0C29901C0C099EF
:10028000DF9A80916D0090916E00489F9001499F88
:10029000300D112480916B0090916C00820F931FA0
:1002A0009093740080937300E4CF97FB072E16F4AD
:1002B000009407D077FD09D00E94690107FC05D0A2
:1002C0003EF4909581959F4F0895709561957F4F6D
:1002D0000895AA1BBB1B51E107C0AA1FBB1FA6178D
:1002E000B70710F0A61BB70B881F991F5A95A9F7DF
:0E02F00080959095BC01CD010895F894FFCF44
:0A02FE00C0F9A4B0999282F8809034
:00000001FF
