:100000000C942A000C9434000C9434000C943400AA
:100010000C9434000C9434000C9434000C94340090
:100020000C9434000C9434000C9434000C94340080
:100030000C9434000C9434000C9434000C94340070
:100040000C9434000C9434000C9434000C94340060
:100050000C94340011241FBECFE5D4E0DEBFCDBF29
:100060000E944C000C946D000C94000087B3806BD0
:1000700087BB81E58DB908958FB9779BFECF089531
:10008000CF93C82FC49881E10E943C008C2F0E941E
:100090003C00C49ACF9108950E943600CFEF8C2F78
:1000A0000E9440002FEF81EE94E02150804090406C
:1000B000E1F700C00000C55091F78C2F0E9440006E
:1000C0002FEF81EE94E0215080409040E1F700C096
:0E00D0000000CB5FCF3F89F7E1CFF894FFCF60
:00000001FF
