:100000000C942A000C9447000C9447000C94470071
:100010000C9447000C9447000C9447000C94470044
:100020000C9447000C9447000C9447000C94470034
:100030000C9447000C9447000C9447000C94470024
:100040000C9447000C9447000C9447000C94300328
:100050000C94470011241FBECFE5D4E0DEBFCDBF16
:1000600011E0A0E6B0E0E0EBF6E002C005900D92F2
:10007000A03BB107D9F723E0A0EBB1E001C01D928E
:10008000AB3BB207E1F70E94BB010C9456030C9402
:10009000000080EB87BB80E588BB86E081BB81E008
:1000A00082BB089583E58DB91EB8089580E58DB9AA
:1000B00081E08EB908958FB9779BFECF8FB10895F7
:1000C00010BC89E189B91BB886E880BD88E18AB98E
:1000D00008955D9BFECF8CB908955F9BFECF8CB1D8
:1000E0000895CF93DF93EC018881882331F0219626
:1000F0000E94690089918111FBCFDF91CF91089512
:100100008DE00E9469008AE00E94690008950F93C3
:100110001F93CF93DF93C42FD52F162F072FC4988B
:1001200080640E945B00802F0E945B00812F0E94F0
:100130005B008D2F0E945B008C2F0E945B0085E985
:100140000E945B00CAEC02C0C15031F08FEF0E94E8
:100150005B00D82F8F3FC1F3C49A8FEF0E945B00E2
:100160008D2FDF91CF911F910F910895CF93DF9342
:10017000C49A8FEC97E00197F1F700C00000DAE035
:100180008FEF0E945B00D150D9F7C49840E050E057
:10019000BA0180E00E948700C8EC08C040E050E04F
:1001A000BA0180E00E948700C150B1F08130B1F700
:1001B00017C040E050E0BA0181E00E948700C150C2
:1001C00069F08111F6CF40E052E060E070E080E13C
:1001D0000E948700C49A0CC0D1E00AC0D1E008C0D8
:1001E00040E050E0BA0181E00E948700C8ECE9CF0E
:1001F0008D2FDF91CF910895CF93DF93AB01BC0199
:10020000032E39E0440F551F661F771F3A95D1F72B
:10021000302D81E10E948700811124C0C498CAE872
:10022000D3E105C0219719F4C49A81E01BC08FEF78
:100230000E945B008E3FB1F7C0E0D0E08FEF0E94DC
:100240005B00FE01E954FE4F80832196C11582E0D8
:10025000D807A1F78FEF0E945B008FEF0E945B0031
:10026000C49A80E0DF91CF910895CF93DF93AB01E3
:10027000BC01032E39E0440F551F661F771F3A95C6
:10028000D1F7302D88E10E94870081112EC0C498DB
:100290008EEF0E945B00C0E0D0E0FE01E954FE4F0B
:1002A00080810E945B002196C11582E0D807A9F7E2
:1002B0008FEF0E945B008FEF0E945B008FEF0E9428
:1002C0005B00982F9F71953039F0C49A0EC021972A
:1002D00029F4C49A81E009C0CAE8D3E18FEF0E94F3
:1002E0005B008823A1F3C49A80E0DF91CF91089549
:1002F0008F929F92AF92BF92CF92DF92EF92FF9236
:100300006B017C0149015A01AB01BC01032E39E0AC
:10031000440F551F661F771F3A95D1F7302D80E2A5
:100320000E94870081111EC0B501A40141505109EE
:10033000610971094C0D5D1D6E1D7F1D032E39E095
:10034000440F551F661F771F3A95D1F7302D81E274
:100350000E948700811106C040E050E0BA0186E2A9
:100360000E948700FF90EF90DF90CF90BF90AF90FA
:100370009F908F9008950E9449000E9452000E9411
:1003800060002FEF80E792E0215080409040E1F73D
:1003900000C00000929A80E690E00E9471000E94E6
:1003A000B60081110FC088E790E00E9471000E94A2
:1003B0005600E12CF12C0F2EF7EBAF2EF1E0BF2E03
:1003C000F02D05C08EE890E00E947100FFCF8FE90C
:1003D00090E00E94710089EA90E00E9471008BEB2E
:1003E00090E00E94710083ED90E00E9471008AEE1F
:1003F00090E00E9471000E946D00182F0E94690019
:100400000E94800080ED810F833008F045C089EFA5
:1004100090E00E9471001092B3011092B40110920A
:10042000B5011092B601C4E0D0E00E946D00C82E64
:100430000E9469008091B3019091B401A091B5012F
:10044000B091B601880F991FAA1FBB1FAC01BD0157
:10045000440F551F661F771F440F551F661F771FD8
:10046000840F951FA61FB71F4C2D50E04053510914
:10047000052E000C660B770B840F951FA61FB71F68
:100480008093B3019093B401A093B501B093B601EA
:10049000219759F60E948000113309F469C0123384
:1004A00009F4A2C0103309F0CFC080E191E00E94AE
:1004B00071001092B7031092B8031092B903109212
:1004C000BA03C3E0D0E00E946D00D82E0E946900FC
:1004D0008091B7039091B803A091B903B091BA038A
:1004E000880F991FAA1FBB1FAC01BD01440F551FE8
:1004F000661F771F440F551F661F771F840F951FB8
:10050000A61FB71F4D2D50E040535109052E000C7A
:10051000660B770B840F951FA61FB71F8093B70339
:100520009093B803A093B903B093BA03219759F6F7
:100530000E9480002091B7033091B8034091B90325
:100540005091BA036091B3017091B4018091B501EB
:100550009091B6010E947801882329F08AE291E007
:100560000E94710034CF89E391E00E9471002FCF87
:1005700084E491E00E947100CE2DDF2D0E946D0079
:10058000182F0E946900CE010196C954DE4F1883CE
:100590001E3729F4811522E0920738F00FC0EC01D4
:1005A000C11582E0D80751F709C0FC01E954FE4F9C
:1005B000108201968115E2E09E07B9F76091B301C0
:1005C0007091B4018091B5019091B6010E943501FE
:1005D000882329F083E691E00E947100F8CE82E73B
:1005E00091E00E947100F3CE6091B3017091B4016B
:1005F0008091B5019091B6010E94FC00882329F0FA
:100600008DE791E00E947100E2CE8BE891E00E94BC
:100610007100F50180818E37E1F411C0FE01E954CB
:10062000FE4F80810E9469002196C115F2E0DF072C
:1006300031F0FE01E954FE4F80818E3779F782E96F
:1006400091E00E947100C3CE8EE991E00E9471009A
:10065000BECEF50180810E946900C1E0D0E0E9CF03
:100660001F920F920FB60F9211248F939F93809138
:10067000B201882329F08091B20181508093B201A8
:100680008091B0019091B101892B49F08091B00126
:100690009091B10101979093B1018093B0019F9126
:1006A0008F910F900FBE0F901F901895F894FFCF69
:1006B00041546D6567613136205344204361726453
:1006C00020546573740D0A00534420436172642002
:1006D000496E697469616C697A65640D0A005344F6
:1006E00020496E6974204661696C65640D0A000DCD
:1006F0000A4D656E753A0D0A00303A2045726173F5
:100700006520426C6F636B730D0A00313A2057729B
:100710006974652053696E676C6520426C6F636B0A
:100720000D0A00323A20526561642053696E676C8D
:100730006520426C6F636B0D0A0053656C656374D2
:100740002028302D32293A2000456E7465722042EF
:100750006C6F636B2028302D39393939293A2000E4
:10076000426C6F636B7320746F20457261736520F8
:1007700028312D393939293A2000457261736520B5
:100780004661696C65640D0A004572617365204FAE
:100790004B0D0A00456E7465722035313220627946
:1007A0007465732028656E642077697468207E29DB
:1007B0003A20005772697465204661696C65640D62
:1007C0000A005772697465204F4B0D0A005265612B
:1007D00064204661696C65640D0A00446174613A85
:1007E00020000D0A52656164204F4B0D0A00496ECE
:1007F00076616C6964204F7074696F6E0D0A000039
:00000001FF
