:100000000C942A000C9459000C946B000C9434004E
:100010000C9434000C9434000C9434000C94340090
:100020000C9434000C9434000C9434000C94340080
:100030000C9434000C9434000C9434000C94340070
:100040000C9434000C9434000C947D000C94340017
:100050000C94340011241FBECFE5D4E0DEBFCDBF29
:100060000E948F000C949D000C94000087B38B605D
:1000700087BB88B3847F88BB81B3837F81BBBA98F9
:1000800082B38C6082BBC29A089585B7826085BFB7
:1000900085B78E7F85BF85B7886085BF85B78B7F25
:1000A00085BF84B7806484BF8BB7806E8BBF789424
:1000B00008951F920F920FB60F9211248F939F9362
:1000C00098B381E0892788BB9F918F910F900FBED5
:1000D0000F901F9018951F920F920FB60F92112438
:1000E0008F939F9398B382E0892788BB9F918F91CC
:1000F0000F900FBE0F901F9018951F920F920FB682
:100100000F9211248F939F9398B388E0892788BB1F
:100110009F918F910F900FBE0F901F9018950E9486
:1001200036000E9445002FEF80E792E0215080408A
:0E0130009040E1F700C00000F6CFF894FFCF3A
:00000001FF
