:100000000C942A000C943F000C943F000C943F0089
:100010000C943F000C943F000C943F000C943F0064
:100020000C943F000C943F000C943F000C943F0054
:100030000C943F000C943F000C943F000C943F0044
:100040000C943F000C943F000C943F000C943F0034
:100050000C943F0011241FBECFE5D4E0DEBFCDBF1E
:1000600010E0A0E6B0E0E8E2F3E002C005900D92F7
:10007000AC36B107D9F70E9464010C9492010C943C
:100080000000C09892B39F70282F207F922B92BBC4
:10009000C19A32E03A95F1F700C0C198EFE8F1E07B
:1000A0003197F1F700C0000022B32F70F0E18F9F6D
:1000B000C0011124822B82BBC19A32E03A95F1F73C
:1000C00000C0C1988FE891E00197F1F700C00000EF
:1000D0000895C09A92B39F70282F207F922B92BBD5
:1000E000C19A32E03A95F1F700C0C198EFE8F1E02B
:1000F0003197F1F700C0000022B32F70F0E18F9F1D
:10010000C0011124822B82BBC19A32E03A95F1F7EB
:1001100000C0C1988FE891E00197F1F700C000009E
:10012000089581B3806F81BB87B3836087BB2FE75E
:1001300088E391E0215080409040E1F700C000004A
:1001400083E30E94410082E30E94410088E20E9412
:1001500041008CE00E94410081E00E94410086E065
:100160000E9441008FE99FE00197F1F700C0000075
:100170000895CF93DF93EC018881882331F0219695
:100180000E94690089918111FBCFDF91CF91089581
:10019000EF92FF920F931F93CF93DF9300D000D085
:1001A00000D0CDB7DEB78C01892B19F480E38983A9
:1001B00066C0FE0131967F0140E04F5F9801ADECD3
:1001C000BCEC0E94830196958795969587959695A8
:1001D00087959C01220F331F880F991F880F991F45
:1001E000880F991F820F931F9801281B390BC90193
:1001F000805DD7018D937D019801ADECBCEC0E9430
:1002000083018C0116950795169507951695079508
:100210000115110519F4443020F011C0453069F67C
:100220000EC090E281E0840FA1E0B0E0AC0FBD1FF2
:10023000A40FB11D9C93482F8430A1F725C0DE0187
:10024000A40FB11D11961C92242F2695C1F0842F66
:10025000A1E0B0E0AC0FBD1FA80FB11D215030E0F0
:100260002F5F3F4F81E090E08C0F9D1F280F391FBB
:1002700080819E9191938C93E217F307C9F7CE0189
:1002800001960E94B90003C01D8222E0E1CF2696AC
:100290000FB6F894DEBF0FBECDBFDF91CF911F9197
:1002A0000F91FF90EF90089580E487B987E886B9B1
:1002B000089597B1907F8F70892B87B9369A3699B8
:1002C000FECF84B195B108950E9491000E9454011F
:1002D00082E00E94410080E690E00E94B90080E048
:1002E0000E945901EC0180EC0E944100CE010E9465
:1002F000C8002FEF84E39CE0215080409040E1F75C
:1003000000C00000ECCFA29FB001B39FC001A39F2B
:10031000700D811D1124911DB29F700D811D11243E
:08032000911D0895F894FFCF30
:0C0328004144432056616C75653A20008A
:00000001FF
