:100000000C942A000C9434000C9434000C943400AA
:100010000C9434000C9434000C9434000C94340090
:100020000C9434000C9434000C9434000C94340080
:100030000C9434000C9434000C9434000C94340070
:100040000C9434000C9434000C9434000C94340060
:100050000C94340011241FBECFE5D4E0DEBFCDBF29
:100060000E9441000C9481000C9400008AE683BF3A
:10007000BB9A81EA8FBD8AE08EBD81B3806381BB6C
:1000800008950E9436008FEF8ABD18BC1CBE2FEF6A
:1000900039E698E1215030409040E1F700C000007F
:1000A0001ABC88BD1CBE2FEF39E698E121503040C4
:1000B0009040E1F700C000001ABC18BC8CBF2FEFC5
:1000C00039E698E1215030409040E1F700C000004F
:1000D0008ABD88BD8CBF2FEF39E698E121503040B2
:1000E0009040E1F700C000001ABC18BC1CBE2FEF06
:1000F00039E698E1215030409040E1F700C000001F
:06010000C3CFF894FFCF0D
:00000001FF
